:1000000012C02AC029C028C027C026C025C024C0CD
:1000100023C022C021C020C01FC01EC01DC01CC0E4
:100020001BC01AC019C011241FBECFEDCDBF10E0F8
:10003000A0E6B0E0ECE7F2E002C005900D92AC3D26
:10004000B107D9F710E0ACEDB0E001C01D92AC3DB6
:10005000B107E1F74ED010C1D3CFC798C69898B377
:10006000282F22952F70907F922B98BBC59AC59808
:10007000EFE3FCE93197F1F700C0000098B38F700F
:10008000907F892B88BBC59AC5988FE39CE901971F
:10009000F1F700C000000895C79AC69898B3282FBA
:1000A00022952F70907F922B98BBC59AC598EFE34D
:1000B000FCE93197F1F700C0000098B38F70907F92
:1000C000892B88BBC59AC5988FE39CE90197F1F706
:1000D00000C000000895CF93DF93EC01888188234E
:1000E00029F02196D9DF89918823E1F7DF91CF911B
:1000F00008958FEF87BB87EC81BB83E3AEDF82E39C
:10010000ACDF88E2AADF86E0A8DF8CE0A6DF81E032
:10011000A4DF80E8A2DF80E690E0DDDF80EC9DDFF9
:1001200080E790E0D8DF919A8FEF95EAAEE08150BA
:100130009040A040E1F700C000009198C0E0D0E0FE
:1001400000E010E0EE24FF240F2EFDE7AF2EF0E0DC
:10015000BF2EF02DCC24DD240F2EF9EC8F2EF0E0F5
:100160009F2EF02D0F2EFBEA2F2EF0E03F2EF02DCC
:100170000F2EFEE86F2EF0E07F2EF02D0F2EFDE902
:100180004F2EF0E05F2EF02D839907C0909880E805
:1001900064DFC501A0DFE601F7CF849924C00F5FBB
:1001A0001F4F8FEF91EEA4E081509040A040E1F707
:1001B00000C000000B3011053CF3909880EC4DDF3F
:1001C000C30189DF8FEF95EAAEE081509040A040F7
:1001D000E1F700C0000080EC40DFC2017CDF9198B5
:1001E000E6018601D1CF859933C00894E11CF11C4A
:1001F0008FEF91EEA4E081509040A040E1F700C065
:1002000000009BE0E916F1040CF4BECF909A80EC5C
:1002100024DFC10160DF8FEF95EAAEE081509040AE
:10022000A040E1F700C0000080EC17DF8BEB90E00E
:1002300052DF8FEF95EAAEE081509040A040E1F7A9
:1002400000C0000080EC09DFC1E0D0E076019CCF67
:10025000C130D10509F098CF80ECFFDEC4013BDF4F
:10026000919A8FEF91EEA4E081509040A040E1F789
:0C02700000C00000919888CFF894FFCFE8
:10027C0050554D5020434F4E54524F4C4C4552000C
:10028C0053595354454D2052454144590050524FF7
:10029C004245204552524F522020202020005441EC
:1002AC004E4B2046554C4C20202020200050554DC4
:1002BC0050204F464620202020200054414E4B20F9
:1002CC00454D50545920202020200050554D502091
:1002DC004F4E2020202020200046494C4C494E47B0
:0C02EC002054414E4B2020202020000018
:00000001FF
