:1000000012C022C021C020C01FC01EC01DC01CC005
:100010001BC01AC019C018C017C016C015C014C024
:1000200013C012C011C011241FBECFEDCDBF10E010
:10003000A0E6B0E0E6E4F1E002C005900D92A8363B
:10004000B107D9F738D07DC0DBCFC798C69892B337
:10005000282F22952F70907F292B28BBC59AC598F1
:1000600020E43CE9F9013197F1F792B38F70907F6A
:10007000982B98BBC59AC598C9010197F1F70895C7
:10008000C79AC69892B3282F22952F70907F292B5C
:1000900028BBC59AC59820E43CE9F9013197F1F7EE
:1000A00092B38F70907F982B98BBC59AC598C90161
:1000B0000197F1F70895CF92DF92EF92FF920F939D
:1000C0001F93DF93CF93CDB7DEB728970FB6F89481
:1000D000DEBF0FBECDBFDE011196E0E6F0E088E0A6
:1000E00001900D928150E1F78FEF87BB83E3ADDF85
:1000F00082E3ABDF88E2A9DF86E0A7DF8CE0A5DF43
:1001000081E0A3DF80E8A1DFFE013196DF010D90E1
:100110000020E9F77D010894E108F108EE1AFF0AD2
:1001200000E010E06F0107C0F601E00FF11F8081D1
:10013000A7DF0F5F1F4F0E151F05B0F300E010E0A3
:06014000FACFF894FFCF96
:0801460020617368696E20005E
:00000001FF
