:1000000012C02AC029C028C027C026C025C024C0CD
:1000100023C022C021C020C01FC01EC01DC01CC0E4
:100020001BC01AC019C011241FBECFEDCDBF10E0F8
:10003000A0E6B0E0E8EEF2E002C005900D92AC3D23
:10004000B107D9F710E0ACEDB0E001C01D92AC3DB6
:10005000B107E1F74ED046C1D3CFC798C69898B341
:10006000282F22952F70907F922B98BBC59AC59808
:10007000EFE3FCE93197F1F700C0000098B38F700F
:10008000907F892B88BBC59AC5988FE39CE901971F
:10009000F1F700C000000895C79AC69898B3282FBA
:1000A00022952F70907F922B98BBC59AC598EFE34D
:1000B000FCE93197F1F700C0000098B38F70907F92
:1000C000892B88BBC59AC5988FE39CE90197F1F706
:1000D00000C000000895CF93DF93EC01888188234E
:1000E00029F02196D9DF89918823E1F7DF91CF911B
:1000F00008958FEF87BB87EC81BB83E3AEDF82E39C
:10010000ACDF88E2AADF86E0A8DF8CE0A6DF81E032
:10011000A4DF80E8A2DF80E690E0DDDF80EC9DDFF9
:1001200080E790E0D8DF909A8FEF90E7A2E08150CF
:100130009040A040E1F700C0000090988FEF90E75A
:10014000A2E081509040A040E1F700C00000909AEA
:100150008FEF90E7A2E081509040A040E1F700C00F
:1001600000009098C0E0D0E000E010E0EE24FF2412
:100170000F2EFDE78F2EF0E09F2EF02D0F2EFEE8C4
:10018000AF2EF0E0BF2EF02DCC24DD240F2EF9ECA5
:100190004F2EF0E05F2EF02D0F2EF0E66F2EF0E0E8
:1001A0007F2EF02D0F2EFCE92F2EF0E03F2EF02DAC
:1001B000839917C0919883E350DF82E34EDF88E292
:1001C0004CDF86E04ADF8CE048DF81E046DF80E8F4
:1001D00044DFC40180DF80EC40DFC5017CDFE60145
:1001E000E7CF849931C00F5F1F4FAFE3BCE9119790
:1001F000F1F700C0000006301105D4F2919883E3B6
:100200002CDF82E32ADF88E228DF86E026DF8CE02D
:1002100024DF81E022DF80E820DFC3015CDF80ECA7
:100220001CDFC10158DF8FEF95EAAEE081509040AE
:10023000A040E1F700C0000080EC0FDFC5014BDFFC
:100240009098E6018601B4CF80B3859936C00894B2
:10025000E11CF11CAFE3BCE91197F1F700C000000D
:10026000B6E0EB16F1040CF4A3CF919A83E3F5DE2C
:1002700082E3F3DE88E2F1DE86E0EFDE8CE0EDDEA5
:1002800081E0EBDE80E8E9DEC30125DF80ECE5DE1E
:100290008BEA90E020DF8FEF95EAAEE0815090404E
:1002A000A040E1F700C0000080ECD7DE8BEB90E0CF
:1002B00012DFC1E0D0E076017BCF80B3C130D10541
:1002C00009F076CF80ECC9DEC20105DF909A8FEF8E
:1002D00099EFA0E081509040A040E1F700C00000FD
:0802E000909866CFF894FFCF5F
:1002E80050554D5020434F4E54524F4C4C455200A0
:1002F80053595354454D2052454144590050524F8B
:100308004245204552524F5220202020200050556F
:100318004D50204F464620202020200054414E4B6F
:100328002046554C4C20202020200054414E4B2084
:10033800454D50545920202020200050554D502024
:100348004F4E2020202020200046494C4C494E4743
:0C0358002054414E4B20202020200000AB
:00000001FF
